:020000040000fa
:080000000002040000000000f2
:020000040000fa
:100008009a0200009a0200009a0200009a02000078
:100018009a0200009a0200009a0200009a02000068
:100028009a0200009a0200009a0200009a02000058
:100038009a0200009a0200009a0200009a02000048
:100048009a0200009a0200009a0200009a02000038
:100058009a0200009a0200009a0200009a02000028
:100068009a0200009a0200009a020000e0020000d2
:100078009a0200009a0200009a0200009a02000008
:100088009a0200009a0200009a0200009a020000f8
:100098009a0200009a0200009a0200009a020000e8
:1000a8009a0200009a0200009a0200009a020000d8
:1000b8009a0200009a0200009a0200009a020000c8
:1000c8009a0200009a0200009a0200009a020000b8
:1000d8009a0200009a0200009a0200009a020000a8
:1000e8009a0200009a0200009a0200009a02000098
:1000f8009a0200009a0200009a0200009a02000088
:100108009a0200009a0200009a0200009a02000077
:100118009a0200009a0200009a0200009a02000067
:100128009a0200009a0200009a0200009a02000057
:100138009a0200009a0200009a0200009a02000047
:100148009a0200009a0200009a0200009a02000037
:100158009a0200009a0200009a0200009a02000027
:100168009a0200009a0200009a0200009a02000017
:100178009a0200009a0200009a0200009a02000007
:100188009a0200009a0200009a0200009a020000f7
:100198009a0200009a0200009a0200009a020000e7
:1001a8009a0200009a0200009a0200009a020000d7
:1001b8009a0200009a0200009a0200009a020000c7
:1001c8009a0200009a0200009a0200009a020000b7
:1001d8009a0200009a0200009a0200009a020000a7
:1001e8009a0200009a0200009a0200009a02000097
:0801f8009a0200009a020000c7
:020000040000fa
:100208009a0200009a0200009a0200009a02000076
:100218009a0200009a0200009a0200009a02000066
:100228009a0200009a0200009a0200009a02000056
:100238009a0200009a0200009a0200009a02000046
:100248009a0200009a0200009a0200009a02000036
:100258009a0200009a0200009a0200009a02000026
:100268009a0200009a0200009a020000e0020000d0
:100278009a0200009a0200009a0200009a02000006
:100288009a0200009a0200009a0200009a020000f6
:100298009a0200009a0200009a0200009a020000e6
:1002a8009a0200009a0200009a0200009a020000d6
:1002b8009a0200009a0200009a0200009a020000c6
:1002c8009a0200009a0200009a0200009a020000b6
:1002d8009a0200009a0200009a0200009a020000a6
:1002e8009a0200009a0200009a0200009a02000096
:1002f8009a0200009a0200009a0200009a02000086
:100308009a0200009a0200009a0200009a02000075
:100318009a0200009a0200009a0200009a02000065
:100328009a0200009a0200009a0200009a02000055
:100338009a0200009a0200009a0200009a02000045
:100348009a0200009a0200009a0200009a02000035
:100358009a0200009a0200009a0200009a02000025
:100368009a0200009a0200009a0200009a02000015
:100378009a0200009a0200009a0200009a02000005
:100388009a0200009a0200009a0200009a020000f5
:100398009a0200009a0200009a0200009a020000e5
:1003a8009a0200009a0200009a0200009a020000d5
:1003b8009a0200009a0200009a0200009a020000c5
:1003c8009a0200009a0200009a0200009a020000b5
:1003d8009a0200009a0200009a0200009a020000a5
:1003e8009a0200009a0200009a0200009a02000095
:0803f8009a0200009a020000c5
:020000040000fa
:100400002f8020000e7f22000e01880000000000d7
:10041000000020000000e000020032000001200087
:10042000200288000c000700e041200001002000ad
:1004300011000700000020000000e0000200320070
:1004400000000200000000009e0202000000000008
:100450000040da000000fe004440a9000000200037
:100460000000e0000300320000002000a00188002e
:100470004440a80000000600910188008000780038
:100480000000eb0015003700e280400032a0b4000d
:100490009101ba00e280400032a0b4009102ba009b
:1004a000e280400032a0b4000002eb00472bde00e7
:1004b000f507b200602ce10004003a000059eb009f
:1004c0008301e900fdff3e00040037006128e100e0
:1004d000010032000082eb00040007001101ba00a5
:1004e0000200e000e8ff3a00000006003159ba00bf
:1004f0008301e9000c0032002159ba008301e900b0
:10050000080032000400e00003003a00e2804000ee
:1005100032a0b400f5ff370011d9ba008301e90019
:10052000faff3a008100e800e180400032a0b40008
:0c053000000006000040da000000fe00a1
:020000040000fa
:10053c000000fa0086000700b6000700b2000700b2
:10054c000002eb00044088000100370000000000ae
:10055c000440800005002000360020000700200029
:10056c00860f5200878f5a00f8ff3e00046001008e
:10057c00030037000500370007003700090037007b
:10058c00400020007d0007000900370050002000cb
:10059c007a00070006003700600020007700070093
:1005ac0003003700700020007400070000000000fa
:1005bc00e7ff3700849fbe003400f80004002000e1
:1005cc00a40188000200fa008660a900551680007c
:1005dc000402200004826200e00f520058003a002e
:1005ec000002eb0034088800f40f2e006408880029
:1005fc00840880000440a0000450a00084088800f7
:10060c0084e0a90011e1a8000002eb00040f7800bf
:10061c002800370055168000040220000482620076
:10062c00e00f52001800320004408000e00f52002e
:10063c0003003a00140020000440880040003700fa
:10064c0004408000e10f520003003a002400200017
:10065c00044088003a00370004408000e20f52004a
:10066c0003003a00340020000440880034003700b6
:10067c0004408000e30f520030003a000002eb000f
:10068c00044088002e003700250480000408200058
:10069c0004826200e00f52000600320084e0a900e0
:1006ac0011e1a9000002eb00340888001e0fe800dd
:1006bc0011e1a800250480000408200004826200d7
:1006cc00e00f520003003a001e027800e20f5200c5
:1006dc00d0ff3a0084e0a90011e1a9000440800099
:1006ec00e00f520003003a00340020000440880060
:1006fc001300370004408000e10f520003003a0061
:10070c000002eb00044088000d003700044080001c
:10071c00e20f520003003a0014002000044088004d
:10072c000700370004408000e30f520004003a0039
:10073c002400200004408800010037000000000065
:10074c000080fa003400f9004f02be0000400600a1
:10075c000000fa00c9e2a900c9c2a900c9a2a900f7
:10076c00c982a900cde2a800cdc2a800cda2a800e4
:10077c00cd82a8000080fa00000006000200fa00fa
:10078c00000f78001e027800e40f520005003a00ba
:10079c00cde2a900cdc2a800cda2a800cd82a800b0
:1007ac00170037001e027800e50f520005003a00d2
:1007bc00cde2a800cdc2a900cda2a800cd82a80090
:1007cc000f0037001e027800e60f520005003a00b9
:1007dc00cde2a800cdc2a800cda2a900cd82a80070
:1007ec00070037001e027800e70f520004003a00a1
:1007fc00cde2a800cdc2a800cda2a800cd82a90050
:10080c000080fa00000006000000fa000080fa00e8
:10081c00000006000000fa00c8a2a8008660a9002b
:10082c009660a8006360a8000080fa000000060033
:020000040000fa
:10083c0000080000020000000000000000000000a2
:020000040000fa
:020000040001f9
:0457f800ad7b000085
:020000040000fa
:020000040001f9
:0457fc003f3f00002b
:00000001FF
